{
  "contractName": "RewardsSystem",
  "abi": [
    {
      "inputs": [
        {
          "internalType": "address",
          "name": "",
          "type": "address"
        }
      ],
      "name": "balanceOf",
      "outputs": [
        {
          "internalType": "uint256",
          "name": "",
          "type": "uint256"
        }
      ],
      "stateMutability": "view",
      "type": "function",
      "constant": true
    },
    {
      "inputs": [],
      "name": "webAppController",
      "outputs": [
        {
          "internalType": "address",
          "name": "",
          "type": "address"
        }
      ],
      "stateMutability": "view",
      "type": "function",
      "constant": true
    },
    {
      "inputs": [
        {
          "internalType": "address",
          "name": "user",
          "type": "address"
        },
        {
          "internalType": "uint256",
          "name": "amount",
          "type": "uint256"
        }
      ],
      "name": "increaseAsset",
      "outputs": [
        {
          "internalType": "bool",
          "name": "",
          "type": "bool"
        }
      ],
      "stateMutability": "nonpayable",
      "type": "function"
    },
    {
      "inputs": [
        {
          "internalType": "address",
          "name": "user",
          "type": "address"
        },
        {
          "internalType": "uint256",
          "name": "amount",
          "type": "uint256"
        }
      ],
      "name": "decreaseAsset",
      "outputs": [
        {
          "internalType": "bool",
          "name": "",
          "type": "bool"
        }
      ],
      "stateMutability": "nonpayable",
      "type": "function"
    },
    {
      "inputs": [
        {
          "internalType": "address",
          "name": "from",
          "type": "address"
        },
        {
          "internalType": "address",
          "name": "to",
          "type": "address"
        },
        {
          "internalType": "uint256",
          "name": "amount",
          "type": "uint256"
        }
      ],
      "name": "transferAsset",
      "outputs": [
        {
          "internalType": "bool",
          "name": "",
          "type": "bool"
        }
      ],
      "stateMutability": "nonpayable",
      "type": "function"
    },
    {
      "inputs": [
        {
          "internalType": "address[]",
          "name": "users",
          "type": "address[]"
        }
      ],
      "name": "getBalancesOfAll",
      "outputs": [
        {
          "internalType": "uint256[]",
          "name": "",
          "type": "uint256[]"
        }
      ],
      "stateMutability": "nonpayable",
      "type": "function"
    }
  ],
  "bytecode": "0x608060405233600160006101000a81548173ffffffffffffffffffffffffffffffffffffffff021916908373ffffffffffffffffffffffffffffffffffffffff16021790555034801561005157600080fd5b50610a88806100616000396000f3fe608060405234801561001057600080fd5b50600436106100625760003560e01c8063240363b314610067578063439e2e45146100975780636a7c88a7146100c757806370a08231146100e5578063c430efad14610115578063f4c8cfca14610145575b600080fd5b610081600480360381019061007c91906104b2565b610175565b60405161008e919061050d565b60405180910390f35b6100b160048036038101906100ac9190610528565b610257565b6040516100be919061050d565b60405180910390f35b6100cf61027a565b6040516100dc919061058a565b60405180910390f35b6100ff60048036038101906100fa91906105a5565b6102a0565b60405161010c91906105e1565b60405180910390f35b61012f600480360381019061012a91906104b2565b6102b8565b60405161013c919061050d565b60405180910390f35b61015f600480360381019061015a9190610755565b610319565b60405161016c919061085c565b60405180910390f35b6000816000808573ffffffffffffffffffffffffffffffffffffffff1673ffffffffffffffffffffffffffffffffffffffff1681526020019081526020016000205410156101f8576040517f08c379a00000000000000000000000000000000000000000000000000000000081526004016101ef90610901565b60405180910390fd5b816000808573ffffffffffffffffffffffffffffffffffffffff1673ffffffffffffffffffffffffffffffffffffffff16815260200190815260200160002060008282546102469190610950565b925050819055506001905092915050565b60006102638483610175565b5061026e83836102b8565b50600190509392505050565b600160009054906101000a900473ffffffffffffffffffffffffffffffffffffffff1681565b60006020528060005260406000206000915090505481565b6000816000808573ffffffffffffffffffffffffffffffffffffffff1673ffffffffffffffffffffffffffffffffffffffff16815260200190815260200160002060008282546103089190610984565b925050819055506001905092915050565b60606000825167ffffffffffffffff81111561033857610337610612565b5b6040519080825280602002602001820160405280156103665781602001602082028036833780820191505090505b50905060005b83518110156104005760008085838151811061038b5761038a6109da565b5b602002602001015173ffffffffffffffffffffffffffffffffffffffff1673ffffffffffffffffffffffffffffffffffffffff168152602001908152602001600020548282815181106103e1576103e06109da565b5b60200260200101818152505080806103f890610a09565b91505061036c565b5080915050919050565b6000604051905090565b600080fd5b600080fd5b600073ffffffffffffffffffffffffffffffffffffffff82169050919050565b60006104498261041e565b9050919050565b6104598161043e565b811461046457600080fd5b50565b60008135905061047681610450565b92915050565b6000819050919050565b61048f8161047c565b811461049a57600080fd5b50565b6000813590506104ac81610486565b92915050565b600080604083850312156104c9576104c8610414565b5b60006104d785828601610467565b92505060206104e88582860161049d565b9150509250929050565b60008115159050919050565b610507816104f2565b82525050565b600060208201905061052260008301846104fe565b92915050565b60008060006060848603121561054157610540610414565b5b600061054f86828701610467565b935050602061056086828701610467565b92505060406105718682870161049d565b9150509250925092565b6105848161043e565b82525050565b600060208201905061059f600083018461057b565b92915050565b6000602082840312156105bb576105ba610414565b5b60006105c984828501610467565b91505092915050565b6105db8161047c565b82525050565b60006020820190506105f660008301846105d2565b92915050565b600080fd5b6000601f19601f8301169050919050565b7f4e487b7100000000000000000000000000000000000000000000000000000000600052604160045260246000fd5b61064a82610601565b810181811067ffffffffffffffff8211171561066957610668610612565b5b80604052505050565b600061067c61040a565b90506106888282610641565b919050565b600067ffffffffffffffff8211156106a8576106a7610612565b5b602082029050602081019050919050565b600080fd5b60006106d16106cc8461068d565b610672565b905080838252602082019050602084028301858111156106f4576106f36106b9565b5b835b8181101561071d57806107098882610467565b8452602084019350506020810190506106f6565b5050509392505050565b600082601f83011261073c5761073b6105fc565b5b813561074c8482602086016106be565b91505092915050565b60006020828403121561076b5761076a610414565b5b600082013567ffffffffffffffff81111561078957610788610419565b5b61079584828501610727565b91505092915050565b600081519050919050565b600082825260208201905092915050565b6000819050602082019050919050565b6107d38161047c565b82525050565b60006107e583836107ca565b60208301905092915050565b6000602082019050919050565b60006108098261079e565b61081381856107a9565b935061081e836107ba565b8060005b8381101561084f57815161083688826107d9565b9750610841836107f1565b925050600181019050610822565b5085935050505092915050565b6000602082019050818103600083015261087681846107fe565b905092915050565b600082825260208201905092915050565b7f446563726561736520616d6f756e742067726561746572207468616e2062616c60008201527f616e636500000000000000000000000000000000000000000000000000000000602082015250565b60006108eb60248361087e565b91506108f68261088f565b604082019050919050565b6000602082019050818103600083015261091a816108de565b9050919050565b7f4e487b7100000000000000000000000000000000000000000000000000000000600052601160045260246000fd5b600061095b8261047c565b91506109668361047c565b92508282101561097957610978610921565b5b828203905092915050565b600061098f8261047c565b915061099a8361047c565b9250827fffffffffffffffffffffffffffffffffffffffffffffffffffffffffffffffff038211156109cf576109ce610921565b5b828201905092915050565b7f4e487b7100000000000000000000000000000000000000000000000000000000600052603260045260246000fd5b6000610a148261047c565b91507fffffffffffffffffffffffffffffffffffffffffffffffffffffffffffffffff821415610a4757610a46610921565b5b60018201905091905056fea2646970667358221220305f562560e89a18b229048924968866be988241a653da44193dcb32acbe005a64736f6c634300080c0033",
  "immutableReferences": {},
  "source": "// SPDX-License-Identifier: MIT\npragma solidity >=0.4.22 <0.9.0;\n\ncontract RewardsSystem {\n    mapping(address => uint256) public balanceOf;\n    address public webAppController = msg.sender;\n\n    function increaseAsset(address user, uint256 amount) public returns (bool) {\n        // require(msg.sender == webAppController, \"Invalid access\");\n        balanceOf[user] += amount;\n        return true;\n    }\n\n    function decreaseAsset(address user, uint256 amount) public returns (bool) {\n        // require(msg.sender == webAppController, \"Invalid access\");\n        require(\n            balanceOf[user] >= amount,\n            \"Decrease amount greater than balance\"\n        );\n        balanceOf[user] -= amount;\n        return true;\n    }\n\n    function transferAsset(\n        address from,\n        address to,\n        uint256 amount\n    ) public returns (bool) {\n        // require(msg.sender == webAppController, \"Invalid access\");\n        decreaseAsset(from, amount);\n        increaseAsset(to, amount);\n        return true;\n    }\n\n    function getBalancesOfAll(address[] memory users)\n        public\n        returns (uint256[] memory)\n    {\n        // require(msg.sender == webAppController, \"Invalid access\");\n        uint256[] memory amounts = new uint256[](users.length);\n\n        for (uint256 i = 0; i < users.length; i++) {\n            amounts[i] = balanceOf[users[i]];\n        }\n\n        return amounts;\n    }\n}\n",
  "sourcePath": "/home/aswath/Documents/workspace/programming/rewards-system-web3/contracts/RewardsSystem.sol",
  "compiler": {
    "name": "solc",
    "version": "0.8.12+commit.f00d7308.Emscripten.clang"
  },
  "schemaVersion": "3.4.6",
  "updatedAt": "2022-03-27T19:02:27.143Z",
  "networkType": "ethereum",
  "devdoc": {
    "kind": "dev",
    "methods": {},
    "version": 1
  },
  "userdoc": {
    "kind": "user",
    "methods": {},
    "version": 1
  }
}